:020000040800F2
:10000000780600207D0100084F0A00084D0A00080C
:1000100000000000000000000000000000000000E0
:10002000000000000000000000000000530A00086B
:100030000000000000000000510A0008550A0008F6
:100040008F0100088F0100088F0100088F01000850
:100050008F0100088F0100088F0100088F01000840
:100060008F0100088F0100088F0100088F01000830
:100070008F0100088F0100088F0100088F01000820
:100080008F0100088F010008000000008F010008A8
:100090008F0100088F0100088F0100088F01000800
:1000A0008F0100088F0100088F0100088F010008F0
:1000B0008F010008000000008F01000800F002F826
:1000C00000F04CF812A030C8083824182D18AC42A3
:1000D00001D100F043F80FCCA246AB460CA730CFBD
:1000E0002D1B083F3F197C427F1E54442D090426D6
:1000F000F441641EAC4201D300F030F801263342D3
:1001000000D0FB1A3343984754465D46DFE70000B2
:10011000F80D0000180E0000103A02D378C878C11C
:10012000FAD8520701D330C830C101D504680C6039
:1001300070470000704700000023002400250026BF
:10014000103A01D378C1FBD8520700D330C100D593
:100150000B6070471FB51FBD10B510BD00F02DF826
:100160001146FFF7F7FF00F051FD00F045F803B42A
:10017000FFF7F2FF03BC00F04BF800000748804790
:1001800007480047FEE7FEE7FEE7FEE7FEE7FEE77B
:1001900004480549054A064B704700005D0A0008FF
:1001A000BD000008780000207806002078020020BA
:1001B00078020020704770477047754600F024F8B9
:1001C000AE46050069465346C008C000854618B0D3
:1001D00020B5FFF7DDFF60BCB64600260027C0C58E
:1001E000C0C5C0C5C0C5C0C5C0C5C0C5C0C5403DEF
:1001F000490849008D46704710B50446C046C046C0
:100200002046FFF7B4FF10BD0048704710000020E3
:1002100001491820ABBEFEE726000200704700002F
:10022000F0B58BB008900A68002A00D1CAE00F46EA
:1002300065480899814201D0052000E00320009024
:1002400000231C46099301970CE0294331605B1C95
:100250003A681046D8400999091D0991A41C002844
:1002600000D1AFE0012604969E4032400392EED0CA
:100270000793384603273946A140C94323464468BB
:1002800025463D406A1E012A0294069313D8059123
:1002900008998A68059F3A40C7689F4017438F6056
:1002A000E206D20F079B9A404F68B743084605996C
:1002B0001743476007E0032D0898079B03D13D468D
:1002C000019F029C20E0C2680A40019FBE68069818
:1002D000864016430898C6600898022D029C13D1E8
:1002E00005911C21099A11400F228A40DD08AD00BA
:1002F00045192E6A96433A698A400599324308980F
:100300002A627C6803252540069B9D4002680A40BE
:100310002A430260A1031C46079B890F97D05B48C4
:100320000168049E31430160016831400A91032253
:10033000194691430A9A26480D580922D206089870
:10034000904208D0234A904206D0234A9042009E11
:1003500002D1022600E000260C220998024037460E
:100360000F269640B5431A48091897402F430F604F
:10037000164EB168019F7868C20210D5039D2943CB
:10038000B160F168820210D4A943F1607168820300
:1003900010D4A94371603168C00311D555E7039D9E
:1003A000A943B160F1688202EED52943F16071681A
:1003B0008203EED5294371603168C00300D544E75C
:1003C000A94343E70BB0F0BD000C00480004014016
:1003D000080001400004004800080048002A02D03C
:1003E00018228150704728228150704705480068C4
:1003F0007047C0461A48007802490A681018086019
:100400007047C0467000002010B57D48016810227A
:100410000A4302600024204600F004F800F022F8AD
:10042000204610BD70B504467D20C0000C4E3178CA
:1004300000F056FC01467A48006800F051FC00F0DC
:10044000EBFA0125032C08D8002806D10025E84343
:1004500021462A4600F01CF87460284670BDC0464C
:100460000000002082B009480168012211430160A8
:100470000168114001910199110742680A434260E5
:10048000406808400090009802B070471810024081
:10049000002805D40322034693430A4A9A1803E02E
:1004A0000C220240064BD2188007C00E8901C9B247
:1004B0008140FF23834010689843084310607047D1
:1004C00014ED00E000E400E0F0B581B000284ED06B
:1004D00004464B4A1368012003408B4208D213683C
:1004E0000126B3430B431360126832408A423FD166
:1004F000009121688A07434B10D54A0706D5072289
:1005000012021B6813433F4A13603E4B1A68F023E4
:100510009A43A36813433B4A13603A4BC9072AD155
:100520003749086801263040009A904205D908688A
:10053000B04308600868C0071AD12078400706D584
:100540000720000219688143E068084318601968B1
:100550000C220A402D48082A18D18A02120F2C4B6F
:100560009C5C284B9A6AC90332D42B4837E0012699
:10057000304601B0F0BD61681A1F022908D0012978
:100580000BD1126892030646F2D50AE0044627E032
:10059000126892010646EBD503E012689207064600
:1005A000E6D518680326B04308431860FFF71EFF1E
:1005B0000746154D134B18680C21014060688000F8
:1005C0008142ADD0FFF712FFC01BA842F2D9CFE79E
:1005D0000F210A400F49895C00F082FB094B44431C
:1005E00018680006000F0D49085CC4400C48046000
:1005F00000263046FFF716FF304601B0F0BDC0467A
:1006000000200240041002408813000000127A000B
:10061000E60E0008F60E000800093D00D60E0008A0
:1006200008000020F0B587B004460120002C00D15E
:10063000EAE104902078C007F44E059426D0716852
:100640000C20014004291AD071680140082902D108
:100650007068C00313D4616801204704002900D1E9
:1006600084E1052900D198E1012900D199E1010433
:1006700032688A43326081043068884394E130688C
:10068000800303D56068002800D1BDE02078800792
:100690001AD570680007800F07D070680C210140E0
:1006A000082975D17068C00372D430688007059C32
:1006B00003D5E068012800D0A6E03068F82188431F
:1006C0002169C90001433160059C2078000724D4CA
:1006D0002078400736D42078C00600D4B4E00598CE
:1006E0004069411D00D1A3E0012800D0F4E0706B07
:1006F000042101437163706B012101437163FFF7B2
:1007000075FE0546706B800700D595E0FFF76EFE1D
:10071000411B03200229F5D976E1706AE1690029BD
:1007200060D0012108437062FFF760FE0546706AE1
:100730008007CDD4FFF75AFE401B0228F7D90320CB
:1007400007B0F0BD012003900107F0690840029056
:1007500006D1F0690843F061F069084006900698F8
:100760000191AB4F3868C00528D40398040238685B
:1007700020433860FFF73AFE0546386820421DD115
:10078000FFF734FE401B6428F7D9032007B0F0BD03
:100790003068059CE168002939D0012108433060A8
:1007A000FFF724FE05463068800786D4FFF71EFE5B
:1007B000401B0228F7D9032007B0F0BD05988068D8
:1007C000944F002800D19CE0052800D1AEE001281C
:1007D00000D1AFE0306A039988433062306A042167
:1007E0008843AAE0012188437062FFF7FFFD0546B8
:1007F000706A800700D46BE7FFF7F8FD401B022802
:10080000F6D9032007B0F0BD049807B0F0BD012170
:1008100088433060FFF7EAFD05463068800700D462
:1008200052E7FFF7E3FD411B03200229F5D9EBE076
:10083000706B042188437063706BF82188430599BD
:100840008969C900014371630598046A002C1ED0B0
:1008500070680C21014008291CD1012C049800D19A
:10086000D2E00120030471680B40F26A059D6C6AB6
:10087000A34200D0C8E00F231A40EC6AA24200D085
:10088000C2E09A041140AA6A914200D0BCE0002064
:1008900007B0F0BD01200206316804929143316037
:1008A0004706FFF7A3FD0546022C0BD1049C3068D8
:1008B000384200D188E0FFF799FD411B032002294F
:1008C000F5D9A1E030683842E1D0FFF78FFD411B38
:1008D00003200229F6D997E0706B0421014371636C
:1008E000706B012188437063FFF780FD0546706BD4
:1008F0008007A9D5FFF77AFD411B03200229F6D90D
:1009000082E0306A039988433062306A0421884368
:100910003062FFF76BFD0546306A80071CD5FFF794
:1009200065FD411B0320B942F6D96DE0306A042110
:1009300001433162306A039908433062FFF756FD84
:100940000546306A800707D4FFF750FD401BB842C8
:10095000F7D9032007B0F0BD02980028059C00D00D
:10096000B9E6F06901998843F061B4E601043268A0
:100970008A4332608004316881433160FFF736FD7D
:100980000546059C3068384200D17FE6FFF72EFD12
:10099000411B03206429F5D936E0810432680A43FB
:1009A00032600104306808433060FFF71FFD0546E0
:1009B0003068384200D069E6FFF718FD401B642814
:1009C000F6D9032007B0F0BDF06A0F218843059ADD
:1009D000D16A0143F1623D20000471688143906A4D
:1009E0000843516A01437160306820433060FFF76B
:1009F000FDFC04463068384200D048E7FFF7F6FCBB
:100A0000011B03200229F5D907B0F0BD00100240F8
:100A10000070004088130000401E010E01D001202C
:100A200070470749074A5060074803680B40032195
:100A300089075918016000209060072111607047F4
:100A4000FFFFFF0010E000E020ED00E0FEE7FEE722
:100A50007047704780B5FFF7CDFC80BD7047000040
:100A6000F0B5684E01292DDB01240B462340664A70
:100A7000012929D100252C46002B21D0005D4640BC
:100A80007008F10700D099E04108C00700D09AE053
:100A90004808C90700D09BE04108C00700D09CE08F
:100AA0004808C90700D09DE04108C00700D09EE07B
:100AB0004808C90700D09FE04508C00700D055404E
:100AC000A8B2F0BDB0B2F0BDA1430024354603E0AA
:100AD000A41CA1422E46CFD0065D6E407508F607D5
:100AE00031D16E08ED0732D17508F60733D16E08A3
:100AF000ED0734D17508F60735D16E08ED0736D10C
:100B00007708F50737D17D08FE0700D05540061954
:100B100076786E407508F60732D16E08ED0733D14E
:100B20007508F60734D16E08ED0735D17508F6075C
:100B300036D16E08ED0737D17708F50738D17D0833
:100B4000FE07C5D038E055406E08ED07CCD05640C2
:100B50007508F607CBD055406E08ED07CAD0564051
:100B60007508F607C9D055406E08ED07C8D0564045
:100B70007708F507C7D057407D08FE07C6D1C6E7FE
:100B800055406E08ED07CBD056407508F607CAD021
:100B900055406E08ED07C9D056407508F607C8D015
:100BA00055406E08ED07C7D056407708F507C6D008
:100BB00057407D08FE078BD0554089E750404108DB
:100BC000C00700D164E751404808C90700D163E776
:100BD00050404108C00700D162E751404808C907AA
:100BE00000D161E750404108C00700D160E75140A3
:100BF0004808C90700D15FE750404508C00700D04A
:100C00005DE75DE7FFFF000001A0000092B001A8D2
:100C10003049018002252946FFF722FFFFF7F4FB48
:100C200000240A9409940D940C940B94089407944E
:100C300011940520C00410900F940E950695102075
:100C40000A900120099006A8FFF7ECFC002803D0C9
:100C5000EFF3108072B6FEE7059404940395072025
:100C6000029002A801252946FFF72EFC002803D098
:100C7000EFF3108072B6FEE70A94099468041649EF
:100C80000A6802430A600A68024002920298E80475
:100C90000A6802430A600968014002910298032031
:100CA00007020E4839462246FFF798FB08940920B0
:100CB000410407910695C00606AE3146FFF7B0FA2B
:100CC000099408940795069704483146FFF7A8FA57
:100CD000FEE7C046017700001410024000080048FB
:100CE00043088B421AD3002203098B4279D3030AAB
:100CF0008B425ED3030B8B4242D3030C8B4227D330
:100D00000902FF2212BA030C8B4202D3121209020B
:100D100003D0030B8B4233D31AE0D3E0411A804156
:100D2000401C704703460B4371D443088B42F5D3F4
:100D3000002203098B4254D3030A8B4239D3030B9D
:100D40008B421DD3030C8B4202D394466EE0090AFA
:100D5000C30B8B4201D3CB03C01A5241830B8B428E
:100D600001D38B03C01A5241430B8B4201D34B0377
:100D7000C01A5241030B8B4201D30B03C01A5241DC
:100D8000C30A8B4201D3CB02C01A5241830A8B4261
:100D900001D38B02C01A5241430A8B4201D34B024A
:100DA000C01A5241030A8B4201D30B02C01A5241AE
:100DB000CDD2C3098B4201D3CB01C01A5241830962
:100DC0008B4201D38B01C01A524143098B4201D39C
:100DD0004B01C01A524103098B4201D30B01C01AC7
:100DE0005241C3088B4201D3CB00C01A5241830841
:100DF0008B4201D38B00C01A524143088B4201D36E
:100E00004B00C01A5241411A524110007047CA0F9C
:100E100000D04942031000D34042534000229C4678
:100E200003098B422DD3030A8B4212D38901FC2282
:100E300012BA030A8B420CD3890192118B4208D358
:100E4000890192118B4204D3890137D0921100E0BD
:100E50008909C3098B4201D3CB01C01A52418309CE
:100E60008B4201D38B01C01A524143098B4201D3FB
:100E70004B01C01A524103098B4201D30B01C01A26
:100E80005241C3088B4201D3CB00C01A52418308A0
:100E90008B4201D38B00C01A5241D9D243088B42F6
:100EA00001D34B00C01A5241411A00D201465241AF
:100EB000104663465B1000D34042704763465B10A8
:100EC00000D3404201B50021004201D0C943084689
:100ED000C046C04602BD0000000000000000010244
:100EE00003040607080902030405060708090A0B9C
:100EF0000C0D0E0F10100102030405060708090A65
:100F00000B0C0D0E0F100000280F00080000002031
:100F10001000000018010008380F00081000002021
:100F2000680600003801000801000000040000000D
:080F300000127A00000000002D
:04000005080000BD32
:00000001FF
